:020000040800F2
:10000000A850012049030008950C0108B5C5000857
:1000100089020108D5260008CDA1010800000000D2
:100020000000000000000000000000006161010805
:10003000E7340008000000001521000805670108EA
:10004000830300088303000883030008DD4A0108D6
:100050008303000883030008830300088303000868
:100060008303000883030008830300088303000858
:100070008303000883030008830300088303000848
:100080008303000883030008830300088303000838
:100090008303000883030008830300088303000828
:1000A0008303000883030008830300088303000818
:1000B00083030008318D0108C98D010883030008FE
:1000C00083030008830300088303000883030008F8
:1000D0008303000851A00108C9A0010829A1010853
:1000E00083030008D14A0108830300088303000842
:1000F00083030008830300088303000883030008C8
:1001000083030008830300088303000883030008B7
:10011000830300088303000883030008FD8D0108A2
:100120008303000883030008830300088303000897
:100130008303000883030008830300088303000887
:100140008303000883030008830300088303000877
:100150008303000883030008830300088303000867
:100160008303000883030008830300088303000857
:1001700083030008830300088303000800000000D5
:100180008303000883030008830300088303000837
:100190008303000883030008830300088303000827
:1001A00083030008830300088303000800F002F8BB
:1001B00000F0B2F80AA090E8000C82448344AAF14F
:1001C0000107DA4501D100F0A7F8AFF2090EBAE84D
:1001D0000F0013F0010F18BFFB1A43F0010318477B
:1001E00048FE030068FE03000A444FF0000C10F8BC
:1001F000013B13F0070408BF10F8014B1D1108BFA5
:1002000010F8015B641E05D010F8016B641E01F844
:10021000016BF9D113F0080F1EBF10F8014BAD1C94
:100220000C1B09D16D1E58BF01F801CBFAD505E0B2
:1002300014F8016B01F8016B6D1EF9D59142D6D30C
:10024000704700000023002400250026103A28BF34
:1002500078C1FBD8520728BF30C148BF0B60704738
:100260006E2900F05885702900F0FB81662929F07D
:100270003D81652929F03A81672929F03781612973
:1002800029F0368103681B0A28BF41F080016929E3
:1002900000F02E81642900F02B81752900F028815F
:1002A0006F2900F01386782900F0C781E92900F052
:1002B0005B81E42900F05881F52900F05581EF2990
:1002C00000F01086F82900F0C6810368DB0928BF1A
:1002D00041F08001632900F05A85732900F05F85A1
:1002E000E32901F0E181F32901F0E6810020704764
:1002F0001FB529F0F6F801F039FA040000200021BA
:1003000028F042FC401C60600020002128F026FC00
:10031000E0601FBD10B510BD01F0FAF91146FFF7FE
:10032000E7FF26F061FF01F0D3FA03B4FFF7F2FF15
:1003300003BC26F01AFA000030BF72B6704762B6EE
:10034000704780F30888704711488047DFF8440001
:10035000016841F470010160BFF34F8FDFF838008E
:10036000016821F040410160BFF36F8F0B480047E7
:10037000FEE7FEE7FEE7FEE7FEE7FEE7FEE7FEE755
:10038000FEE7FEE706480749074A084B70470000AA
:100390002967010888ED00E034EF00E0AD010008B6
:1003A000A8440120A8500120A8460120A846012009
:1003B00072B6704762B67047EFF3108072B670473E
:1003C00080F31088704730BF704720BF7047B0FA85
:1003D00080F0704790FAA0F0B0FA80F0704790FA81
:1003E000A0F07047704700001CB50C46064B7B44DC
:1003F00069460090204600F0A8FC044600206946AB
:1004000000F0B6FC20461CBD7F0900000FB4044973
:1004100010B503AA029800F0C7FC10BC5DF814FBED
:10042000400000200FB41CB5084B06AA7B44694667
:100430000090059800F089FC04460020694600F011
:1004400097FC20461CBC5DF814FB0000410900002D
:1004500070B5044685690068C10601D5302600E004
:100460002026C00707D070BDD4E90121304690474F
:10047000206A401C20626D1EF6D570BD70B5044622
:1004800085690078C00707D170BDD4E9012120201B
:100490009047206A401C20626D1EF6D570BD70B575
:1004A0000C460546012A05D02878800600D5EA6961
:1004B000002302E0012305E05B1C934202D2E05CD2
:1004C0000028F9D1A869E618C01AA861286A18445A
:1004D00028622846FFF7BCFF04E0D5E9012114F8A3
:1004E000010B9047B442F8D32846FFF7C7FF70BD11
:1004F0002DE9F0410646002410687529314616A5FD
:1005000010D000F09DFB002802DA404213A507E05E
:1005100031688A0701D512A502E0490704D511A563
:10052000012401E000F095FB00210A2206F12407D6
:1005300009E0B0FBF2FCB0FBF2F302FB1C00303030
:1005400078541846491C0028F3D123462A463046E1
:10055000BDE8F04100F086BB000000002D00000067
:100560002B000000200000002DE9F0418046D21D44
:1005700022F007020025D2E90002F52915A614D0C1
:10058000011E72F1000106DA0023D0EB030063EBD9
:10059000020211A608E0D8F800108B0701D50FA6BB
:1005A00002E0490701D50EA601251146002408F1F5
:1005B000240704E000F0F4FA30323A55641C50EAA3
:1005C0000102F7D12B46324621464046BDE8F041B4
:1005D00000F048BB000000002D0000002B000000D0
:1005E00020000000F0B40D460188090502D5214C19
:1005F0007C4402E01F4C7C440E34002100F12406B0
:1006000008E002F00F071209E75D42EA03721B09D6
:100610007754491C52EA0307F3D1027800231207EA
:1006200004D5702D06D009B1022311342246F0BC46
:1006300000F018BB01231034F8E770B504460D46EE
:100640002146106800F005FB024629462046BDE819
:1006500070400023C6E7D21D22F00703D3E9002330
:10066000C0E70368126843F0200303600823C361F6
:100670000023B7E721F703002DE9F05F8946044620
:100680004FF0000ADFF874B1FB44C0F820A0204608
:10069000E1688847002874D0252806D0D4E90121D4
:1006A0009047206A401C2062F1E700265F46204602
:1006B000E16888472028054607DB312D05D27819E7
:1006C00010F8200C08B10643F1E7B00701D526F079
:1006D0000406C4F81CA00027C4F818A02A2D09D0CD
:1006E000284626F03BF838B304EB8708303DC8F8BD
:1006F000185019E059F8041B204604EB8702916159
:10070000E1688847012F054618D1E069002820DA02
:1007100026F020061DE0D8F8180000EB800005EB5D
:1007200040003038C8F818002046E1688847054680
:1007300026F014F80028EED1012F0AD02E2D08D172
:100740002046E16888477F1C0546022F46F02006B8
:10075000C4DBA069002803DA404246F00106A0612C
:10076000F00701D026F010066C2D0BD0682D09D0B3
:100770004C2D39D06A2D35D0742D35D07A2D33D00B
:1007800016E038E0E1682F4620468847B842054623
:1007900009D16C2F26D04FF48060E16806432046D3
:1007A0008847054604E06C2F1AD04FF4807006434A
:1007B0000DB3A5F14100192802D8203546F4006692
:1007C0004A462946204626604E46FFF749FD80B13D
:1007D00001280BD0F61D26F0070000F1080956E7A6
:1007E0004020E4E78020D8E70020D6E706F104099E
:1007F0004DE7284652E7206ABDE8F09FB1F60300B6
:1008000030B505460B462A4613F8014B12F8010B8A
:1008100008B1A042F8D01CB1002802D06D1CF1E74D
:10082000284630BD40EA010310B59B070FD1042ACA
:100830000DD310C808C9121F9C42F8D020BA19BAAB
:10084000884201D9012010BD4FF0FF3010BD1AB110
:10085000D30703D0521C07E0002010BD10F8013B65
:1008600011F8014B1B1B07D110F8013B11F8014B8C
:100870001B1B01D1921EF1D1184610BD40EA0103A5
:10088000024630B59B0710D14FF0013400E008C29A
:1008900008C91D1B9D4315EAC41FF8D013F0FF01C2
:1008A00002F8011B0DD01B0AF8E711F8013B002BE1
:1008B00002F8013B05D011F8013B002B02F8013B87
:1008C000F3D130BD10B5431C02E010F8011B71B12B
:1008D0008107FAD14FF0013202C88C1A8C4314EA16
:1008E000C211F9D0C01A0A0603D0C01E10BDC01A2A
:1008F00010BD0A0401D0801E10BD0902FCD0401EAC
:1009000010BD032A40F2308010F0030C00F0158077
:1009100011F8013BBCF1020F624498BF11F801CB02
:1009200000F8013B38BF11F8013BA2F1040298BF67
:1009300000F801CB38BF00F8013B11F0030300F0D1
:100940006780083AC0F0088051F8043B083A51F833
:1009500004CBA0E80810F5E7121D5CBF51F8043B7A
:1009600040F8043BAFF30080D20724BF11F8013BED
:1009700011F801CB48BF11F8012B24BF00F8013B4F
:1009800000F801CB48BF00F8012B7047431A28BF7D
:100990009A427FF6B6AF032A1044114440F22680F3
:1009A00010F0030F1EBF11F8013D521E00F8013D6B
:1009B00010F0030F7FF4F6AF11F0030300F0AF82E5
:1009C000083AC0F00B8051F8043D083A51F804CDC4
:1009D00040F8043D40F804CDFFF7F3BF121D5CBFA3
:1009E00051F8043D40F8043DAFF30080D20724BF26
:1009F00011F8013D11F801CD48BF11F8012C24BFB9
:100A000000F8013D00F801CD48BF00F8012C704707
:100A100010B5203AC0F00B80B1E81850203AA0E899
:100A20001850B1E81850A0E81850BFF4F5AF5FEACD
:100A3000027C24BFB1E81850A0E8185044BF18C980
:100A400018C0BDE810405FEA827C24BF51F8043B27
:100A500040F8043B08BF7047D20728BF31F8023B7B
:100A600048BF11F8012B28BF20F8023B48BF00F80F
:100A7000012B704702F0FF0343EA032242EA0242DD
:100A800000F002B84FF000020429C0F0128010F00C
:100A9000030C00F01B80CCF1040CBCF1020F18BF5A
:100AA00000F8012BA8BF20F8022BA1EB0C0100F0ED
:100AB0000DB85FEAC17C24BF00F8012B00F8012BC0
:100AC00048BF00F8012B70474FF0000200B51346F5
:100AD00094469646203922BFA0E80C50A0E80C505E
:100AE000B1F12001BFF4F7AF090728BFA0E80C500F
:100AF00048BF0CC05DF804EB890028BF40F8042B08
:100B000008BF704748BF20F8022B11F0804F18BF74
:100B100000F8012B704700004FF0013C50F8042B07
:100B200051F8043B9A4221D1A2EB0C03934313EA00
:100B3000CC1317D150F8042B51F8043B9A4215D12D
:100B4000A2EB0C03934313EACC130BD150F8042B04
:100B500051F8043B9A4209D1A2EB0C03934313EAE8
:100B6000CC13DBD04FF00000704700BFD01A01BAA1
:100B7000B1FA81F101F0180122FA01F0CB40C1F184
:100B80002001DBB2C0B2C01A2CFA01F3D11A914392
:100B900011EAC311E6D1704770477047704770473C
:100BA00030B5B0F10A024FEA900E71F100034EEA3F
:100BB000817EB0EB0E0061EB91014FEA101E4EEA10
:100BC000017E10EB0E0041EB11114FEA102E4EEAA0
:100BD000016E10EB0E0041EB11214FEA104E4EEA70
:100BE000014E10EB0E0041EB1141401841F10001A4
:100BF0004FEAD00040EA41704FEAD10110EB800586
:100C00004FEA810444EA907444EB01046D1944EB0B
:100C10000404521BA3414FF0000348BF0A3200D521
:100C200030BD401C41F1000130BD10B500F0A2F90B
:100C3000006810BD10B5044600F09CF9046010BDBA
:100C400009684A0501D540B27047C905FCD500B214
:100C5000704709684A0501D5C0B27047C905FCD57F
:100C600080B270472DE9F0470D46994692460446FA
:100C700000F124080168880604D5E06921F010011C
:100C8000216000E00120A84201DD471B00E00027B1
:100C9000A1697A1902EB0900081AA0612078C00640
:100CA00002D42046FFF7D4FB002608E0D4E9012156
:100CB0001AF806009047206A401C761C20624E45B8
:100CC000F4DB2078C0060AD52046FFF7C1FB06E01A
:100CD000D4E9012130209047206A401C2062381E50
:100CE000A7F10107F4DC07E0D4E9012118F80500B9
:100CF0009047206A401C2062281EA5F10105F3DC04
:100D00002046FFF7BBFB2078000602D50220BDE895
:100D1000F0870120FBE711680268006A530501D5DE
:100D200008700AE0D30501D5088006E0130603D554
:100D3000C217C1E9000200E008600120704700000E
:100D400001694A1C02610878704700B58FB0CDE98F
:100D500001310021059105497944CDE9031011467F
:100D60006846FFF789FC0FB000BD0000E5FFFFFFFC
:100D70000A6802F8010B0A60704710B5436913B1A5
:100D8000AFF3008001E0FFF78AFB012010BD12786D
:100D900000F124010A7000224A700122EDE7116877
:100DA0004FF0FF32E9E70000074B70B50D467B447A
:100DB000FFF7CBFF0446284600F082FC10B14FF04D
:100DC000FF3070BD204670BD6F6302002DE9FF5FEC
:100DD00015468A460446DFF8AC80F8440027D8E977
:100DE00000103E46CDE9001010E03AF816106A46B1
:100DF00002A800F069FC411C07D02178890603D5C0
:100E0000E269391891420DD80744761C2078800693
:100E100002D5E069B84205DDAE42E6DB3AF81600DD
:100E20000028E2D1A069C01BA0612046FFF710FB9B
:100E3000D8E90010CDE90010002017E03AF81810AA
:100E40006A4602A800F040FCB0F1FF3F81460BD09B
:100E500000250DF1080B05E0D4E901211BF8050080
:100E600090476D1C4D45F7D308F10100B042804614
:100E7000E4DB206A384420622046FFF7FFFABDE831
:100E8000FF9F000072EF030030B4002100F1240442
:100E900008E002F00705D208303542EA4372DB0869
:100EA0006554491C52EA0305F3D10468002310A2DB
:100EB000250708D504F020040C4304D0C46901239D
:100EC0000CA2641EC46130BCFFF7CCBE10B5044652
:100ED00021461068FFF7BDFE02462046BDE81040DF
:100EE0000023D1E7D21D22F00701D1E90023CBE78F
:100EF0000000000030000000431A28BF9A427FF62D
:100F000087AD104410F0030F11441EBF11F8013DCE
:100F1000521E00F8013D10F0030F7FF4F6AF103AB7
:100F2000C0F00A8010B531E91850103A20E9185085
:100F3000BFF4F9AFBDE81040530724BF31E90810F2
:100F400020E9081044BF51F8043D40F8043D12F078
:100F5000030F08BF7047D20728BF31F8023D48BFD2
:100F600011F8012C28BF20F8023D48BF00F8012CE1
:100F700070470000004870474844012070472DE941
:100F8000FF4F0C461E464FF0FF378BB0D2E90001F1
:100F9000DDF860800A908A46C1F30A5505B93D46DE
:100FA000002108464FF00000BAF1000F00F44000A5
:100FB00005DA00EB80004FF4400101EA50004FEAEF
:100FC0009059B9F1010F00DDB9460A9850EA4A007C
:100FD0000ED044F61050A5F2FF3545432F14B8F15A
:100FE000000F1ED07542291E1EDDC9F100021CE053
:100FF000B8F1010F4FF0000001D0302103E0F243BF
:1010000005E02154401CB042FBDB304600220021A9
:1010100021540B99C1F80880C1E900200FB0BDE848
:10102000F08FBD1B6D1CDEE74A4600DA694206A858
:1010300000F0E0FB06AB93E8070003AB83E8070092
:1010400050460A9900F04DFC8DE80700A0F50050CD
:101050001F3800900398002D09DD42F21F014A4617
:10106000084403A90390684600F0ACFE08E0A0F530
:1010700000504A461F3803A90390684600F0B6FEA8
:101080008DE807000004000C03D04FF0FF3041084A
:1010900000E01046B8F1000F03D000220092154680
:1010A0001EE0751E05D4FFF77BFD303262556D1EC4
:1010B000F9D5B3460122084302D000227F1C04E088
:1010C0002078302801D100227F1E002A099786D07F
:1010D0001DE0112D07DAFFF763FD303262556D1CFC
:1010E00050EA0102F5D1084302D00098C8B10EE0E1
:1010F0000021681E05E0235C625C63542254401E9C
:10110000491C8142F7DBAB46A81B401E099000201A
:1011100004F80B000B98099AC0F80880C0E9002B6E
:101120007CE711264FF0000859E72DE9F04F88467B
:101130000446D21D22F0070191B0D1E90001CDE9AA
:101140000A0124F079FD02460B98C00F01D02D2032
:1011500007E02068810701D52B2002E0202101EA69
:10116000C000032A099001D0072A05DB0346414647
:10117000204600F0FFFA0BE12078800601D5E069F7
:1011800000E00620B8F1650F814606D0B8F1660F81
:1011900018D0B8F1670F70D131E00020B9F1110F0C
:1011A000009001DB112301E009F101030AAA01A962
:1011B0000CA8FFF7E4FEDDE90C70002609F101053B
:1011C000834647E001204B4600904FF000470AAAB3
:1011D00001A90CA8FFF7D3FEDDE90DB00C995D461F
:1011E000002610B909F101000D18B9EB050003D470
:1011F000C0F1FF3609F10105A5EB09002BE0B9F1BB
:10120000010F01DA4FF001090020B9F1110F009030
:10121000484601DD112300E003460AAA01A90CA8F3
:10122000FFF7ADFEDDE90C704D46002683462078C1
:1012300000070AD4AB4500DA5D4601A8012D04DDA4
:10124000411911F8011C302907D04F4502DA17F176
:10125000040F04DA012082460FE06D1EEEE7002F36
:1012600002DCED1B3E4403E0781CA84200DD7D1C3F
:10127000B81B00F1010A4FF000472078000703D4A3
:10128000AA4501DB4FF0FF3A0021B7F1004F0DF105
:1012900043088DF8431024D002202B23002F01DABD
:1012A0007F422D230A21021EA0F1010000DC5FB164
:1012B00097FBF1FC97FBF1F201FB1C7C17460CF14C
:1012C000300C08F801CDEEE7A8F101000370218889
:1012D000090501D5452100E06521A0F1010800F8CC
:1012E000011C09980FA9A1EB0807FF1D00B10120FF
:1012F000411901EBEA70A1693844081A401EA06147
:101300002078C00602D42046FFF7A2F8099828B139
:10131000D4E901219047206A401C20622078C00651
:1013200022D52046FFF794F81EE0002E04DBB345DB
:1013300002DD01A8805D00E03020D4E90121904762
:10134000206A401C2062761CAAF101005FEA000AB4
:101350000AD100F00BFAC0680168405CD4E90121B1
:101360009047206A401C2062281EA5F10105DCDCA4
:1013700007E0D4E9012118F8010B9047206A401CCE
:101380002062381EA7F10107F3DC2046FFF776F84C
:10139000032011B043E600002DE9F04F04460D464E
:1013A000D21D22F0070089B0D0E90097484639469F
:1013B00024F042FC0246F80F01D02D2307E02068FC
:1013C000810701D52B2302E0202101EAC0038DF81B
:1013D00020300BB1012000E00020032A824601D01A
:1013E000072A04DB2946204600F0C4F93FE12078B3
:1013F000800601D40D2500E0E569C7F30A560D2DDE
:1014000049DA00214FEA175B08464FF00000002F31
:1014100000F4400007DA00EB80004FF4400100EBDD
:10142000D07001EA60008115012901DD4FF0FF3124
:1014300000224FEA850CBCF1180F06D31346ACF11D
:1014400018004FF08052C24003E04FF4801323FA9B
:101450000CF30CF10C0CBCF1200F04D3ACF1200CFC
:1014600009FA0CF001E007FA0CF000294FF00048EF
:1014700001DD18B90FE00ED140450CD319EB02097C
:101480005F4121B9404502D19F4329EA0209BBEBE4
:10149000175F00D0761C2088000502D57B48784471
:1014A00002E07A487844193808AA302302F80A3052
:1014B000037C0AF10101002E0AF1020A53546A4624
:1014C00002DC4FF0300101E04FF031014FF0010834
:1014D0008DF8001002D0A6F2FF3603E059EA47016A
:1014E00000D06B4E002D02DC2178090704D54FF0A7
:1014F00002082E218DF80110C44600210BE0C7F32D
:1015000003433F01C35C491C6D1E02F808300529E6
:1015100008F1010801DA002DF1DC00210CE000EBFC
:101520001973491C1B786D1E082902F808304FEA10
:10153000091908F1010801DA002DF0DC21688B0699
:1015400002D516E0A8F10108E04505DD02EB08032D
:1015500013F8013C302BF5D0B8F1000F09DD02EB98
:10156000080313F8013C2E2B03D1090701D4A8F17D
:101570000108002D05DD3E2102F808106D1E08F15E
:101580000108407C002E02F8080008F1010804DA86
:101590002D20764202F8080002E02B2002F8080015
:1015A0000A214FF47A70864208F101080BDB96FBA2
:1015B000F0F3303302F8083096FBF0F308F101083D
:1015C00000FB136601E0642E0CDB642096FBF0F355
:1015D000303302F8083096FBF0F308F1010800FB05
:1015E000136601E00A2E06DB96FBF1F0303002F8BC
:1015F000080008F1010896FBF1F001FB10603030A3
:1016000002F80800A16908F1010808EB050202EBE5
:101610000A00081AA0612078C00602D42046FEF70E
:1016200017FF216A08AE01EB0A00206204E0D4E94A
:10163000012116F8010B9047BAF1010AF7D2207880
:10164000C00602D52046FEF703FF6E4609E016F8F5
:10165000010B3E280FD0D4E901219047206A401C9D
:101660002062B8F10108F2D22046FEF707FF09B068
:101670000320BDE8F08F206A2844206203E0D4E90B
:101680000121302090476D1EEBD3F8E7C9E8030035
:1016900002FCFFFF10B5436913B1AFF3008001E016
:1016A000FFF794FB012010BD128800F12401828411
:1016B0000022C2840122EDE711684FF0FF32E9E712
:1016C000007B00F08000704770B516460C4605465A
:1016D00000F044F8036893F80101012806D0FF2CBC
:1016E0000FD8185D68B101202C7070BDD3F80701C8
:1016F0003246214603F2071303442846BDE87040F2
:1017000018474FF0FF3070BD004870474844012033
:101710007546FFF7F9FFAE4605006946534620F0CF
:101720000700854618B020B5FEF72CFEBDE8204026
:101730004FF000064FF000074FF000084FF0000B8D
:1017400021F00701AC46ACE8C009ACE8C009ACE840
:10175000C009ACE8C0098D467047000010B500F024
:1017600005F8001D10BD00BF21740200004870473D
:10177000684401202DE9F0411F4604460326016814
:10178000072A01F4006004DB08B116A505E016A5E0
:1017900003E008B115A500E015A521F010002060B8
:1017A000A069C01EA0610FB1401EA0612046FEF7D7
:1017B0004FFE4FB1D4E9012138469047206A401CC2
:1017C0002062C01C206206E0206AFAE7D4E9012109
:1017D00015F8010B9047761EF8D22046FEF74EFE14
:1017E000BDE8F0814E414E006E616E00494E4600EC
:1017F000696E66002DE9F047814616468AB0334887
:1018000078440DC88DE80D0030487844801C03AC46
:101810000DC884E80D0041F69B300844372190FB49
:10182000F1F290FBF1F5A5F1800501FB12041B3CE0
:1018300002D56442012000E00020DFF890A080463D
:101840000027FA44AAF1BE0A0DE0E00709D03246AB
:10185000684607EB47010AEB810100F0C7FA8DE803
:10186000070064107F1C002CEFD1184F7F44AC3F61
:1018700018E0E80714D007EB04100DF1180A90E8FF
:101880000E008AE80E00C068F04201D19819089055
:10189000324606A903A800F0A9FA03AB83E80700C3
:1018A0006D10641C002DE4D132466946B8F1000F7A
:1018B00003A802D000F086FA01E000F097FAC9E927
:1018C0000001C9F808200AB0BDE8F087F8E5030078
:1018D00010B50446AFF300802046BDE81040FEF787
:1018E00024BD5FEA400C08BF91F0000F4FEA8C2343
:1018F0004FEAC12243EA51514FEA1C5018BF00F58C
:10190000F0404FEA300018BF41F000415FEA6C5CE4
:1019100000F02980BCF1FF3F08BF40F080407047D5
:10192000130C06BF12044FF0100C4FF0000C130EF6
:1019300004BF12020CF1080C130F04BF12010CF1CA
:10194000040C930F04BF92000CF1020CD30F04BFE0
:1019500052000CF1010C11464FF00002A0F11F00E3
:10196000A0EB0C00704711F0004F08BF704731F03A
:1019700000413FF4D5AF0B0C06BF09044FF0100C2B
:101980004FF0000C0B0E04BF09020CF1080C0B0FFA
:1019900004BF09010CF1040C8B0F04BF89000CF18A
:1019A000020CCB0F04BF49000CF1010CCCF1200359
:1019B000A0EB0C0022FA03F302FA0CF241EA030155
:1019C00000F10100704720F07F4C80EA030023F013
:1019D0007F47ACEB070303F57C5300F0004003F1B5
:1019E000FF032DE980494FEA154B09B44FEA144330
:1019F00025EA0B4E24EA03480FF2042606EB1327D0
:101A000049083E785FEA320203FB0667C7F5000724
:101A100007FB06F64FEA54374FEAD64606F10206B0
:101A200007FB066CCCF1005C4FEA1C472CEA074C24
:101A300007FB06F40CFB06F504EB15464FEA961679
:101A400034BF00204FF000404FEAD13706FB07FCBF
:101A50004FEA1C4C0CFB0BF7D21B03FB0CF761EBA2
:101A600007010CFB0EF7B0EB074072EB17420CFBC3
:101A700008F734BFA2EB0742B2EB074261EB174114
:101A80004FEA0C444FEA910706FB07FC4FEA1C4C57
:101A90000CFB0BF7B0EBC74072EB573203FB0CF7B4
:101AA00034BFA2EBC742B2EBC74261EB57310CFB2C
:101AB0000EF7B0EBC70072EB57720CFB08F734BFA0
:101AC000A2EBC702B2EBC70261EB5771039F4FEA6B
:101AD000816141EA921104EBCC044FEAD1374FEA1D
:101AE000826206FB07FC42EA90124FEA80604FEAEE
:101AF0001C4C0CFB0BF7D21B03FB0CF761EB070133
:101B00000CFB0EF7B0EB074072EB17420CFB08F72B
:101B100034BFA2EB0742B2EB074261EB17414FEA39
:101B20008C554FEA910704EB9C2406FB07FC4FEA17
:101B30001C4C0CFB0BF7B0EBC74072EB573203FBAE
:101B40000CF734BFA2EBC742B2EBC74261EB57318F
:101B50000CFB0EF7B0EBC70072EB57720CFB08F7EB
:101B600034BFA2EBC702B2EBC70261EB577115EBB2
:101B70004C254FEA816141EA92114FEA82624FEAB5
:101B8000D13742EA901206FB07FC44F100044FEA09
:101B900080604FEA1C4C0CFB0BF7D21B03FB0CF7CD
:101BA00061EB07010CFB0EF7B0EB074072EB17423D
:101BB0000CFB08F734BFA2EB0742B2EB074261EB24
:101BC000174115EB1C154FEA813141EA92414FEA6A
:101BD000823242EA90424FEA80304FEA0C7644F17A
:101BE000000448EA03434EEA0B484FF0000EB2EB04
:101BF000080C71EB030724BF624639464EEB0E0E0C
:101C00004FF0000B0018524149414BEB0B0BB2EB6C
:101C1000080C71EB03077BF1000B24BF62463946C9
:101C20004EEB0E0E4FF0000B0018524149414BEBAA
:101C30000B0BB2EB080C71EB03077BF1000B24BF1D
:101C4000624639464EEB0E0E51EA020718BF46F0C7
:101C5000010616EB0E7655F1000254F1000103D592
:101C6000BDE88901BDE80088BDE88901BDE80048FC
:101C7000B619524141EB0101A3F101037047808085
:101C80007F7E7D7C7B7A79787776767574737271D6
:101C900071706F6E6E6D6C6C6B6A6A69686867668E
:101CA00066656464636362616160605F5F5E5E5D20
:101CB0005D5C5C5B5B5A5A59595858575756565594
:101CC00055555454535352525251515050504F4FF6
:101CD0004F4E4E4D4D4D4C4C4C4B4B4B4A4A4A4946
:101CE0004949484848474747474646464545454489
:101CF0004444444343434342424242414141002B16
:101D000026D4770021D01CB54FEA370703B44FF033
:101D100010004FF010014FF000000FBCBDE8104064
:101D20000BF1010BBBF1010F08BF5FEA170722BFE0
:101D300012F1010211F101014FF0004143F10003E2
:101D400000F0004043EA00007047F9D35708DAE793
:101D500046EA064613F1400F4FEA16461FDD13F11F
:101D6000200FDFBF16430A46002120335B42C8D054
:101D7000C3F1200746EA064602FA07F74FEA16467D
:101D800046EA0706C3F1200722FA03F201FA07F731
:101D900021FA03F14FF0000342EA0702B1E746EAF5
:101DA000020646EA06464FEA164646EA0106BCBF68
:101DB00046EA0646360C4FF000034FF000024FF0A3
:101DC00000019EE72DE9C048934630B491E8380001
:101DD00007C831EA400C48BF34EA430C03D5FFF78B
:101DE000F2FDFFF78CFFF0BCBDE800882DE9C0488C
:101DF000934630B491E8380007C810F0804F08BF10
:101E000013F0804F03D100F005F8FFF778FFF0BC26
:101E1000BDE8008820F07F4780EA030023F07F4C74
:101E200007EB0C03A3F57C5300F00040A3F1FE0385
:101E300092F0000F00F0B38095F0000F00F0778073
:101E40002DE901494FEA11404FEA144621EA0048C2
:101E500000FB06FC24EA064708FB06F607FB08F829
:101E600000FB07F718EB06484CEB164C4FEA124BF9
:101E700018EB07484FEA15464CEB174022EA0B4E89
:101E80000BFB06FC25EA06470EFB06F607FB0EFEDB
:101E90000BFB07F71EEB064E4CEB164C4FF0000603
:101EA0001EEB074E4CEB174B18EB0B0840F10000F4
:101EB00018EB0E0B58EB000840F100008F1A4FF0A2
:101EC00000013CBFC943661B14BFB5EB040C0021E5
:101ED0003CBFC943F61B4FEA17444EEA8E0E27EA71
:101EE00004454FEA1C4704FB07622CEA074C05FB3C
:101EF00007F70CFB05F604FB0CFC16EB074642EB60
:101F0000174216EB0C4642EB1C421BEB060658EB45
:101F10000202414146EA9E0601D5BDE80189B61993
:101F2000524141EB0101A3F10103BDE801894FEAF0
:101F300014454FEA114724EA054621EA074C05FB00
:101F400007F406FB07F70CFB06F105FB0CFC11EB95
:101F5000074144EB17444FEA124711EB0C4144EBA5
:101F60001C4422EA074C05FB07F206FB07F70CFBB3
:101F700006F605FB0CFC16EB074642EB174216EB88
:101F80000C4642EB1C456A1854F1000148BF7047EB
:101F9000B619524141EB0101A3F10103704795F0DD
:101FA000000F37D04FEA11424FEA144721EA0246A8
:101FB00024EA074C02FB07F106FB07F70CFB06F4CB
:101FC00002FB0CFC14EB074441EB17414FEA1547A9
:101FD00014EB0C4441EB1C4125EA074C02FB07F5CE
:101FE00006FB07F70CFB06F602FB0CFC16EB07469C
:101FF00045EB174516EB0C4645EB1C42121951F107
:10200000000148BF7047B619524141EB0101A3F1ED
:10201000010370474FEA14454FEA114724EA054689
:1020200021EA074C05FB07F106FB07F70CFB06F25C
:102030004FF0000605FB0CFC12EB074241EB174189
:1020400012EB0C4251EB1C4148BF7047921841EB18
:102050000101A3F101037047EFF3098141B1F1EEF2
:10206000101A40F8041D20ED200A3E490A6810604D
:102070007047B0EC200A02C8E1EE101A3A490A682B
:102080001060704772B64EF62250CEF2000040F259
:10209000FF01C0F2000101704FF0000080F30988D9
:1020A0000FF056FF40F2B810C2F20000016881F351
:1020B000088840F24210C2F2000040F24311C2F21E
:1020C00000010A78027040F2B015C2F2000540F239
:1020D000B411C2F200010A682A60106880F309880E
:1020E000EFF3148040F0020080F31488BFF36F8F89
:1020F000BDE8F00F0FBCBDE8005006BC62B6084753
:102100001A484FF080510160704718484FF08051D5
:102110000160704772B6EFF3098020E9F00F40F2DA
:10212000B015C2F200052E68306074460FF010FF43
:1021300040F24210C2F2000040F24311C2F200012C
:102140000A78027040F2B411C2F200010A682A60F3
:1021500044F0F40E1068B0E8F00F80F3098862B61E
:1021600070470000B0010020B401002004ED00E041
:102170000AF042BA2DE9F0410D460146002004461E
:102180004E1908E00702301B401E80B200F007F82D
:10219000641C3844E4B2AC42F4D3BDE8F08110B51D
:1021A00004460AF0D1FA200AA02101EB4000C0B297
:1021B0000AF09AFA0AF00AFBE0B20AF095FA0AF07D
:1021C00005FB0AF0C1FAA1200AF08EFA0AF0FEFA25
:1021D00000200AF055FA04460AF0D6FA204610BD4F
:1021E0002DE9F04116460D460746002409E0E000BF
:1021F00025FA00F0C1B2381980B200F006F8641C6C
:10220000E4B2B442F3D3BDE8F08170B50D460446A4
:102210000AF09AFA200AA02101EB4000C0B20AF0AD
:1022200063FA0AF0D3FAE0B20AF05EFA0AF0CEFAE4
:1022300028460AF059FA0AF0C9FA0AF0A5FABDE8E8
:1022400070400A2024F04ABC002800DC404270475D
:1022500038B5456804460146284618F072F900284A
:102260002BD02068304A11280DD006DC0B2825D051
:102270000E2833D00F2852D112E0282849D0B0F5CB
:10228000107F4CD108E09268002A16D021462846DB
:1022900001B0BDE830401047214628465268F7E7B4
:1022A000284604F083F80090406E0468684604F005
:1022B000E7F8002C01D02846A04738BD284604F096
:1022C00075F80090683003F0C7FF009803216C3068
:1022D00003F0D0FF684604F0D3F820E0E1684868D6
:1022E00009680D2902D0202913D105E0002810DD4E
:1022F000284620F098FA06E0002804DD2846BDE8CC
:10230000384020F090BA2846BDE83840022120F03D
:10231000A0BAE06818B90021284600F0A5F92046C7
:10232000BDE8384018F0D8BB64050020F0B504467D
:1023300085B08069B4F90850668A0027CDE9026546
:10234000CDE900170490B4F90C00B4F91060C1187D
:10235000B4F90A00B4F90E50104433462A4600F08E
:1023600007F80546616800F088F905B02846F0BD19
:102370002DE9F04F85B01F46DDE911B4DDE90E56B9
:1023800090468946824605F0CBF916484C34CDE993
:102390000204CDE900563B4642464946504618F0F5
:1023A000E3FA040018D004F001F810225946049012
:1023B00018F01CFA049830220B493430FEF728FB41
:1023C000094D04990C3D2868486604A804F058F8A3
:1023D000286841682046884706F0C8FC05B02046BA
:1023E000BDE8F08F5122000870050020F0B50446CA
:1023F00080688B4989B051F82050606800287DD0F2
:10240000052804D006287AD0122879D1AEE0E869F0
:1024100000284FD095E80E008DE80F0004F1100160
:102420000FC907F0EFF8002655F8260006F013F85C
:10243000A169E8690A1A216901446069304404F01D
:1024400079FEA169E8690A1A21690144E069801BE3
:1024500004F070FEE169E8690A1A616901442069C3
:10246000304404F04FFFE169E8690A1A61690144E8
:10247000A069801B04F046FF761C022ED4DBA868FE
:1024800005F0E9FFE069E9696669431A20694218C5
:102490003144801C521E04F091FFE169E869A26991
:1024A0000B1A61690144101A401C921E04F086FF49
:1024B000EE6913E05FF0000655F8260005F0CBFF4B
:1024C000E069831BA069821B60698119206930441F
:1024D00004F0A6FE761C022EEEDB0226D5E90301EF
:1024E000CDE900016169E06908444310A069891CD5
:1024F000821B2069304404F0E1FD02E089E012E033
:102500008AE0D5E90501CDE90001E36960690121AF
:10251000184401EB6001A0699B1E821B20693044B6
:1025200004F0CCFD78E0206803F040FF04902068C0
:1025300019F01EFF40B1A06808B1002008E004981F
:10254000006F28B1012003E00498406F00B1022021
:10255000049901EB8000C56E04A803F091FF0023ED
:102560001A462846216804F0ABFA55E0206803F0CB
:102570001DFF0490866EEEB3B0F95C70A168D1B314
:10258000032942D05FF0000100EB8101406D0C6C2B
:1025900005F07EFF204605F05EFF05A804F0D0FFA1
:1025A000BDF81410A88B0144ADF81410BDF8181034
:1025B000081AADF81800BDF81600801CADF816001A
:1025C000BDF81A00801EADF81A000498B0F960201A
:1025D000B0F95E1005A805F08DFD04A803F050FFCA
:1025E000022005F0DFFF304603F0E0FE3A4605A981
:1025F000079001E00BE006E004F066FB0DF11C0023
:1026000003F03EFF08E00121BEE70221BCE704A879
:10261000F6E7206819F0E2FA09B00020F0BD0000EA
:1026200014870308044A0349116004494A6A48624E
:1026300010467047A00500206405002070050020AA
:1026400038B50D4604000ED005F06AF8204603F0B8
:10265000ADFE00904565684603F012FF204618F075
:10266000C1FF06F083FB38BD4FF48072002911468C
:1026700001D017F0FABF17F043BF2DE9FF410E4616
:1026800005004FF0010421D005F04AF8284603F078
:102690008DFE0190876E01A8009703F0F1FE314690
:1026A000684607F0B5FA78B100980024B84208D01F
:1026B000284603F07BFE01900099816601A803F093
:1026C000DFFE284618F08EFF06F050FB04B02046CF
:1026D000BDE8F081FEE700002DE9FF4704460068F1
:1026E00010B119F045FE68B10022314850F82210AF
:1026F00060680A2841D007DCF0B306280DD007280F
:1027000054D106E00122F0E712280AD019284DD151
:1027100037E020461AF06AFF48E020461CF066F9D0
:1027200044E0206803F042FE0290B0F9548090F833
:102730005650476C466B02A803F0A2FE206800F0DA
:1027400039F88146684618F0E7FABDF8001009EB41
:1027500005000844ADF80000246A304605F098FEF4
:10276000022005F01FFF384605F075FE4246694617
:10277000204604F0A9FA19E007E020461CF094FF77
:1027800014E0886904B0BDE8F087206819F026FAE3
:10279000206803F00BFE0390B0F90610B0F9022098
:1027A000891A491CC16703A803F06AFE0020E9E703
:1027B0002487030838B5044604F0B2FF204603F02E
:1027C000F5FD0090C46F684603F05AFE06F0CEFA9D
:1027D000204638BD044A034911600449CA69C861EA
:1027E000104670472C060020F00C0020F40C00204E
:1027F00000B589B024216846FEF766F919200190DA
:1028000003480068806841686846884709B000BD91
:10281000F00C0020054910B50020486000F0A6F833
:1028200000F006F8BDE8104000F086B8C8000020AF
:102830002DE9F041104F002635463E807E80BE6077
:10284000FE607E61BE613E61FDF7B6FD80460024FC
:102850007E6100F049F800F057F87869641C2404A0
:102860000544240CF4D0C7E904564046BE61BDE8D7
:10287000F041FDF7A5BD0000C8000020034909692B
:10288000884201D9401A704700207047C8000020D4
:1028900010B5FDF791FD04494C69FDF791FD204607
:1028A000BDE81040FFF7EABFC800002010B5FFF7F1
:1028B000EFFF0446FDF780FD034A00215161FDF75B
:1028C0007FFD204610BD0000C800002010B5FDF7B8
:1028D00073FD04498C69FDF773FD2046BDE8104087
:1028E000FFF7CCBFC800002010B5064C2088401C64
:1028F0002080608810B900F051F8A0606088401C0A
:10290000608010BDC800002010B50A4C6088401ED1
:102910000004000C60800CD100F040F8E060A16879
:10292000401A6169814200D26061A169814200D28E
:10293000A06110BDC800002010B5FDF73DFD0446A4
:10294000FFF7D2FF102105480DF09FFCFFF7DCFFD9
:102950002046BDE81040FDF733BD00008027012070
:102960000149486070470000C800002010B508F019
:10297000DDF908490A6842F080720A6006490022BF
:102980004A600A6842F001020A60BDE81040FFF7A1
:10299000E7BF0000FCED00E0001000E001484068E7
:1029A00070470000001000E070B50E4C0025C4F820
:1029B00098520D48016821F0C0010160016841F0A2
:1029C000400101600948C0F88C52022004F52674C9
:1029D00024F0ACF801202060022024F0A7F8256044
:1029E00070BD0000008043420020024000004442CD
:1029F000154810B5016886B041F08001016001689A
:102A000001F080010591016841F480710160006866
:102A1000012400F4807005904020CDE900040320DB
:102A2000CDE902406946094807F072FB0820009092
:102A30006946074807F06CFB0648C0F88C42064818
:102A4000C0F8984206B010BD30380240001C024069
:102A500000200240000044420080434270B50E4C0A
:102A60000026C4F898620D48016821F0C001016099
:102A7000016841F04001016009480125C0F88C520D
:102A8000022004F5267424F051F82560022024F079
:102A90004DF8266070BD00000080434200200240D7
:102AA000000044422DE9F04782461948002401689D
:102AB00021F0C0010160016801601E2024F036F899
:102AC0000025144EDFF850902F464FF00108C6F84D
:102AD0009872022024F02AF8C6F898826006040E44
:102AE000D9F80C0208B1641CE4B2022024F01EF8EC
:102AF0006D1CEDB2082DEAD3BAF1000F04D0FFF738
:102B000053FF2046BDE8F087FFF7A8FFF9E7000074
:102B10000020024000804342000044422DE9F0477B
:102B200005461648016821F0C0010160016841F0C6
:102B300040010160124E0027C6F89872022023F06F
:102B4000F5FFDFF8408000244FF00109E909C8F8DB
:102B50008C126806050E022023F0E8FFC6F8989252
:102B6000022023F0E3FFC6F89872022023F0DEFF74
:102B7000641CE4B2082CE9D3BDE8F08700200240D1
:102B8000008043420000444270B50F48016821F0C4
:102B9000C0010160016841F0400101600B4E01205D
:102BA000C6F88C020A4DC5F898021E2005F5267558
:102BB00006F5237623F0BAFF00243460022023F0C8
:102BC000B5FF2C6070BD00000020024000004442B0
:102BD0000080434270B50F48016821F0C0010160D8
:102BE000016841F0400101600B4E0020C6F89802D8
:102BF0000A4DC5F88C021E2005F5237506F52676CC
:102C000023F094FF01243460022023F08FFF2C6016
:102C100070BD00000020024000804342000044429A
:102C200070B511480024016821F0C00101600168FD
:102C300001600E4D0120C5F88C020D4EC6F89802B9
:102C400007E0641CE4B2FA2C03D9FFF7C3FF0120AC
:102C500070BD022023F06AFFD5F80C020028F0D1E5
:102C6000C6F8980270BD00000020024000004442F7
:102C7000008043421CB518F07DF803460020009008
:102C80000190034A0521034803F002FE1CBD000029
:102C9000B95D0208E8DD02081CB518F06BF80346C0
:102CA000002000900190034A0E21034803F0F0FD3C
:102CB0001CBD0000AD5F020874DE02081CB518F0F0
:102CC00059F80346002000900190034A0D21034863
:102CD00003F0DEFD1CBD00009D620208FCDF02085F
:102CE0001CB518F047F80346002000900190034AF5
:102CF0000721034803F0CCFD1CBD0000FD64020861
:102D000068E102082DE9FC410C46050038D004F0CA
:102D100007FD112C14D0132C28460ED003F046FBCF
:102D2000009000F0C8FB0646684603F0A9FB204669
:102D300022F08CF9074600241CE000F006FB1BE0A3
:102D4000284600F087F917E02146284600F0B6FB38
:102D5000019070B1007822F079F900F0FF0801A825
:102D600003F08EFBB84504D12146284600F05AFBFB
:102D700002E0641CB442E7DBBDE8FC4105F0F6BFAD
:102D8000BDE8FC81F8B50C46050018D0002C16D023
:102D900004F0C6FC284603F009FB0090C66B6846A9
:102DA00003F06EFB2046FDF78DFD421C21463046A8
:102DB00003F08AFB284618F015FC05F0D7FFF8BD94
:102DC0002DE9FF4145680446284603F0EFFA0190DB
:102DD000D0F8886001A803F053FB0EB1012700E092
:102DE00000272146284617F0ACFB002856D0206863
:102DF000112844D006DC0B2863D00E2878D00F2889
:102E00002BD14FE0212805D026281AD0B0F5107F0D
:102E100023D139E0E068416800291EDD00680D28F3
:102E20001BD130460BF031FD002806DB30460BF09D
:102E30002CFD0146284600F0F5FA284600F07EF801
:102E400075E0E068012809D00A2802D00B2871D16A
:102E500011E00A21284618F085FC6BE030460BF0A3
:102E600014FD002866DB30460BF00FFD01462846B6
:102E700000F0D8FA5BE0284600F060F85AE0FFB9AD
:102E8000E068007A98BB55E0E06848B1007A08B184
:102E9000012100E00221284618F064FCBDE8FF8112
:102EA0000321F8E72E46284603F080FA0290D0F876
:102EB0008400056802A803F0E3FA0DB13046A84784
:102EC00038E0284603F072FA0090C06B03F03CFB38
:102ED0000098D0F8880017F037FE0098D0F89400DA
:102EE00003F090F9684603F0CBFA23E000E016E027
:102EF000E068416800291DDD016820290FD006DC4B
:102F0000092910D00A2915D01B2904D112E0212942
:102F100010D022290ED02846FFF7F4FEBEE728463F
:102F200000F0FAF806E017F069FFB04202D1284637
:102F300018F0CEFD204617F0CFFDAFE738B50400FE
:102F400016D004F0EDFB204603F030FA0090D0F8E4
:102F5000880040B117F0F8FD00990020C1F8880002
:102F6000204618F03FFB684603F08AFA05F0FEFEA3
:102F700038BDF0B585B0B0F90850468A846902962C
:102F8000CDE903540027CDE90017B0F90C10B0F9D2
:102F90001050B0F90E40B0F90A00194410442B4605
:102FA000224600F003F805B0F0BD00002DE9FF5FF8
:102FB0001D46DDE90F8691468A4683460E9F129C88
:102FC00004F0AEFB21496C34CDE90214CDE9007860
:102FD0004FF0FF334A465146584617F0C5FC0400EF
:102FE0002DD003F0E3F910220090119917F0FEFBA9
:102FF00000983822164980F88C604C30FDF708FDA7
:10300000134E0098361F3168C0F88410002180F8F4
:103010009010C586204600F02DFA684603F030FA7D
:1030200003F08FFA0546204603F0C0F90090C5630F
:10303000684603F025FA306841682046884705F065
:1030400095FE04B02046BDE8F09F0000C12D0008A9
:103050007C06002010B5044600F063F9010000D0A2
:10306000411E2046BDE8104000F0DCB9F8B5054629
:10307000006803F09BF90090448ED0F888606846A1
:1030800003F0FEF906B1012604F00104286819F0E6
:103090006FF90EB1002006E00CB1012003E008B189
:1030A000022000E003201B4951F82010686858B343
:1030B00002280CD0052802D0122828D103E0284687
:1030C0001AF0C0FA23E028461DF024F81FE06A69D0
:1030D000E8694FF0FF33801AA0F1080203EB6204A5
:1030E000421CAB69001B4510A3EB6206C86905F0E2
:1030F000B2F906E03219311B284604F01BF8641EB1
:103100006D1C002CF6DA02E0286818F067FD00203C
:10311000F8BD00002C8703082DE9F14F9EB01E98E2
:1031200000287DD004F0FCFA1E9803F03FF90B90C4
:103130001E9817F089FF03900B98B0F9367090F83D
:1031400090101891C16B0A9190F88C90B0F93410DE
:10315000159100F0B0F982460B9804ACB0F88E10CF
:103160001491B0F982101391C16C1291D0E9001240
:10317000CDE90C12D0F894B0002100BF00EB810221
:10318000126D44F82120491C0329F7D3002107AD13
:1031900000EB8102D26D45F82120491C0329F7D3A9
:1031A00000210EAE00EB8102126F46F82120491C6F
:1031B0000329F7D30BA803F063F91E9817F0BBFEA1
:1031C00003F0F4F81190D0F8008011A803F058F93A
:1031D0004FEA284042420FFA88F041420CA804F01E
:1031E00089FF5FEA897003D5BDF83200C01B01E09A
:1031F000BDF83600ADF832001E9817F09CFE01466F
:1032000003980222CDE900070292BDF93230BDF9E0
:10321000302000200BF0BDFA80465FEAC97000E064
:103220007CE007D0404618990BF07DFD0121404617
:103230000BF09EFC002708E039460A9803F0B8F925
:10324000014640460BF060F97F1C5745F4D3002738
:10325000394654F8272040460BF0B4FC7F1C032F5E
:10326000F6D30024214655F8242040460BF0F4FD07
:10327000641C032CF6D30024214656F82420404633
:103280000BF031FD641C032CF6D35FEA0B001FD05A
:1032900003F08CF8169030F8025B002406460127F4
:1032A00011E000BF06EBD40004F00701007807FA34
:1032B00001F1084201D0012200E0002221464046EF
:1032C0000BF0B2FC641CAC42ECDB16A803F0D8F89F
:1032D000404614990BF0DBFC404612990BF08BFC36
:1032E000404613990BF0A3FD404618F0F1FB404611
:1032F0001E990BF0E3FC404615990BF031FD0121BE
:103300001E9818F02FFA1E9803F050F80B90C0F892
:1033100088800BA803F0B4F805F028FD1FB0BDE8C5
:10332000F08F38B505004FF000040CD004F0F8F928
:10333000284603F03BF80090B0F93440684603F0AB
:103340009FF805F013FD204638BD10B50446FFF781
:10335000E8FF411C2046BDE8104000F063B8F8B516
:103360000E46040021D004F0DBF9204603F01EF8DD
:10337000009090F88C10D0F8885021F001040EB124
:1033800044F00104A1420BD080F88C40684603F061
:1033900077F845B104F0010128460BF0E9FB02E0A3
:1033A000684603F06DF805F0E1FCF8BD044A0349F6
:1033B000116004490A6B086310467047B406002088
:1033C000780600207C060020F8B50C46060028D0C0
:1033D00004F0A6F9304602F0E9FF0090D0F88850DA
:1033E000C06C04F055F907460098C464684603F0C1
:1033F00047F8304600F03EF8304618F0F3F875B163
:10340000204604F045F9B84205D03046FFF796FD56
:103410003046FFF781FE214628460BF0ECFB05F015
:10342000A5FCF8BD38B50C46050022D004F078F9AB
:10343000284602F0BBFF009000F03DF800B1401EAE
:10344000844200DD04460098B0F93410A1420BD04C
:103450008486684603F014F8284618F0C3F804215F
:10346000284618F07FF902E0684603F009F805F0F5
:103470007DFC38BDF8B5044602F098FF0146009087
:10348000B0F9380010B9C86C04F002F90099CA6AA2
:10349000B1F98030126800EB43001618084618F0A6
:1034A000E5FD0546684602F0EBFF32462946204618
:1034B00018F0E9FBF8BDC06B03F06EB838B50D46E7
:1034C000002402F073FF0090C06B294603F070F8EF
:1034D0000546684602F0D4FF1DB1284602F066FF9B
:1034E0000446204638BD7047F8B515460C46060020
:1034F00013D004F015F9304602F058FF009038B1AF
:10350000022C05D200EB84004567304618F06AF8BB
:10351000684602F0B5FF05F029FCF8BDF8B5154680
:103520000C46060013D004F0FBF8304602F03EFFD4
:10353000009038B1022C05D200EB8400C5663046FD
:1035400018F050F8684602F09BFF05F00FFCF8BD3C
:1035500021283CD2DFE800F011131517191B1D1F9D
:10356000212325273B3B3B3B27293B3B3B2B3B3B3D
:103570002D2F3133353B3B37390016A0704716A04D
:10358000704719A070471DA0704721A0704728A060
:1035900070472FA0704735A0704742A0704744A0E5
:1035A000704747A070474AA070474DA0704750A091
:1035B000704758A070475BA070475DA0704760A03F
:1035C000704764A0704768A070476AA070476CA0FD
:1035D000704700004F4B0000CAFDBEDDB0FCBDD3FC
:1035E000CAD5B4EDCEF30000B4ABB8D0C6F7C9CF9E
:1035F000C3BBD3D0CAD6D6B800000000C2BCC8EB4B
:10360000D6B8CEC6CDBCCFF1CAA7B0DC0000000052
:10361000D6B8CEC6CDBCCFF1CCABB8C9A1A2CCAB8D
:10362000B5ADB6F8C9FAB2BBB3C9CCD8D5F700006E
:10363000D6B8CEC6CDBCCFF1CCABCAAAA1A2CCAB7A
:10364000BAFDB6F8C9FAB2BBB3C9CCD8D5F70000F9
:10365000D6B8CEC6CDBCCFF1CCABC2D2B6F8C9FA83
:10366000B2BBB3C9CCD8D5F700000000D6B8CEC6DF
:10367000CDBCCFF1D5FDB3A3A3ACB5ABCCD8D5F7BA
:10368000B5E3CCABC9D9A3A8BBF2C3E6BBFDCCABB9
:10369000D0A1A3A9B6F8C9FAB2BBB3C9CCD8D5F7A3
:1036A00000000000D6B8CEC6B2BBC6A5C5E4000077
:1036B000C3BBCBD1CBF7B5BDD6B8CEC6000000009A
:1036C000CCD8D5F7BACFB2A2CAA7B0DC00000000B0
:1036D000C9BEB3FDC4A3B0E5CAA7B0DC00000000BA
:1036E000C7E5BFD5D6B8CEC6BFE2CAA7B0DC0000DA
:1036F000BBBAB3E5C7F8C4DAC3BBD3D0D3D0D0A725
:10370000D4ADCABCCDBCB6F8C9FAB2BBB3C9CDBC46
:10371000CFF10000B6C1D0B420464C41534820B38D
:10372000F6B4ED00CEB4B6A8D2E5B4EDCEF3000009
:10373000CEDED0A7BCC4B4E6C6F7BAC50000000010
:10374000BCC4B4E6C6F7C9E8B6A8C4DAC8DDB4EDAF
:10375000CEF30000BCC7CAC2B1BED2B3C2EBD6B86A
:10376000B6A8B4EDCEF30000D6B8CEC6BFE2C2FA1A
:1037700000000000B5D8D6B7B4EDCEF300000000CD
:10378000C4A3BFE9B7B5BBD8C8B7C8CFC2EBD3D0C5
:10379000CEF30000002229B1012922D0022923D032
:1037A0004FF440720B2800D9001D11490B6823F417
:1037B00040730B600B6813430B600A6822F0F80239
:1037C0000A600A68F82393FAA3F3B3FA83F39840E4
:1037D00040F0020002430A60086840F4803008604C
:1037E00070474FF48072DDE74FF40072DAE70000B3
:1037F000103C02401348016889050FD5016821F487
:1038000000710160016841F400610160016821F408
:1038100000610160016841F40071016001684905BF
:103820000FD5016821F480610160016841F4805185
:103830000160016821F480510160016841F48061F8
:1038400001607047003C02400D48026822F440725B
:1038500002600268026003290AD0012901680CD0C5
:1038600041F400410160016841F48031016070471A
:10387000016848F204021143F4E741F00401F1E762
:10388000103C0240064A136823F440731360136827
:103890001360136843F00103136001707047000068
:1038A000103C0240084910B50C6824F440740C60C8
:1038B0000C6844F440740C600C6844F001040C6023
:1038C0000260436010BD0000103C0240074A1368CC
:1038D00023F440731360136843F480731360136818
:1038E00043F001031360018070470000103C024068
:1038F000074A136823F440731360136843F400739A
:103900001360136843F00103136001607047000007
:10391000103C02401F490868C043C2061E4805D437
:10392000C26942F01002C26110220A600A68D243E2
:10393000920605D4C26942F00802C26120220A60E0
:103940000A68D243520605D4C26942F00402C26139
:1039500040220A600A68D243120605D4C26942F0C6
:103960000202C26180220A600A68D243D20506D4EC
:10397000C26942F00102C2614FF480720A600A68B3
:10398000D243920705D4C26942F02002C2610220EC
:10399000086070470C3C02406033002070B513494A
:1039A00004460020C86106F0ABFC0546104E09E055
:1039B000601C07D024B106F0A3FC401BA04201D933
:1039C000032070BD3068C043C003F1D53068C00724
:1039D00001D00120306031684FF4F970884301D084
:1039E000002070BDFFF796FF012070BD60330020FE
:1039F0000C3C0240102A0FD0C26AD1E9002342EAEF
:103A000003220B89097B4FEA034343EA016142EA3F
:103A1000010203D1C26002E0C268EEE7C2624FF069
:103A200000007047102A0FD0826AD1E9002342EAD1
:103A300003220B89097B4FEA034343EA016142EA0F
:103A4000010203D1826002E08268EEE782624FF0F9
:103A50000000704730B50A68102A1AD0026A104B6D
:103A600002EA0302D1E9013443EA0403D1E9034540
:103A700044EA050443EA04034C69896943EA4423A0
:103A800043EA413141EA020141F0080103D10160FA
:103A900002E00268E3E701624FF0000030BD000081
:103AA0008101F0FF70B5B3F5804F05D06FF0704124
:103AB00040F82210002070BD50F82230084C2340FE
:103AC000D1E9004544EA05148D688E892D0245EA46
:103AD000064589692C430C431C4340F82240E9E722
:103AE0000000F0CFF0B50C6850F82450194A15408A
:103AF000D1E90123D1E903671A433E4332434E69BA
:103B000032438E693243CE6932430E6A32434E6A83
:103B100032438E6A3243CE6A3243CE6B32430E6BEF
:103B200032434E6B32432A43082B01D142F040020C
:103B300040F824204A6BB2F5801F08D10A6832B1E0
:103B40004FF480720A610449026811430160002049
:103B5000F0BD00008000E0FF00011000F0B500EBB8
:103B6000820253688E8903F04044D1E9003543EA6C
:103B700005138D682D0245EA06452B430E8A0D4D2F
:103B800005EB065633430E7D6F0107EB06663343A4
:103B90008E693343234353600268D20207D54268DB
:103BA000098A22F4700205EB0151114341600020A3
:103BB000F0BD00000000F0FF30B5D1E901231A4349
:103BC000D1E9033423431A434B690D681A438B69C7
:103BD0001A43D1E90734012D496A05686FF30E05D0
:103BE00005D01A4322430A432A43026008E02343D4
:103BF00029430B43416803606FF30E010A4342609F
:103C0000002030BD426942EA410141610020704715
:103C1000F8B514460546D1E9000210438A686FF0F2
:103C20001F03C96803EB421242EA41210843009096
:103C3000286106F065FB064609E0601C07D024B148
:103C400006F05EFB801BA04201D90320F8BDA869E5
:103C50008006F2D40020F8BDF0B56FF00F05D1E971
:103C6000003405EB04145B1E2E0123438C682F03E4
:103C700006EB04244FEA054C23430D8A8E8ACC6858
:103C8000097E4FF07F4E07EB05450CEB06560EEB19
:103C90000161012A0CD082683F1107EB04342343F1
:103CA0002B43334302F070420B43134383600FE016
:103CB000C2682B430B4302F070428168134301F04A
:103CC00070422103A1F5805131431143C3608160EB
:103CD0000020F0BD2DE9F047044640688EB0002773
:103CE000804602F063FB0090B0F87CA0D0F86890AA
:103CF000D0F88060D0F88850C06D00B10768684681
:103D000002F0BEFB05E0696820468847002843D1E1
:103D10002D68002DF7D12068172853D00CDC0F2810
:103D20003DD004DC0B2877D00D2825D18BE011285D
:103D300010D0142820D13BE0262846D004DC1E28D1
:103D400051D0202818D18AE02A2816D0B0F5107F4B
:103D500012D128E04046E56802F028FB0290697A1B
:103D600039B9297A012904D130F87C1F41F48071D6
:103D7000018002A802F084FB75E0404602F016FBC9
:103D80000090E16811B1C0F8841002E0D0F884001E
:103D9000E060684602F074FB0EB0BDE8F087D7B370
:103DA0004046B8475FE0214640461EF0DFFEF3E79D
:103DB00005A9404600F0C7FBE06806990160079935
:103DC0004160E9E7C4F80C90E6E7E0680228E3D137
:103DD000CDF83080E0680D9027200A900AA9A068ED
:103DE00018F0C0FCD8E7E068012804D00021404664
:103DF00000F0BBFAD0E7304617F05DFC68B1304602
:103E000017F066FE304617F019FB98B101213046D5
:103E100016F02BFC0EE026E02FE0484617F0ACFE33
:103E20000646404602F0C2FA0090C0F8806068463C
:103E300002F026FB0121404600F097FA002EABD19C
:103E40000020E060A8E75FEA0A700CD4E068C06870
:103E500048B1007A38B1404617F03AFE03E02146F7
:103E600040461EF013FD2146404616F06AFB00282E
:103E700092D0204616F030FE8EE7404602F096FAC9
:103E80000090703002F0E8F9684673E7F0B587B04B
:103E9000B0F908400DF10C0C0C9E876945688CE860
:103EA000F000448A0025CDE900150294B0F90C1009
:103EB000B0F91050B0F90E40B0F90A00194410449E
:103EC0002B46224600F002F807B0F0BD2DE9F04F76
:103ED0008BB09846DDE9155691468A468346149F75
:103EE0001A9C03F01DFC3348603445F48055CDE93D
:103EF0000204CDE9007543464A465146584616F03D
:103F000033FD04004FD002F051FA3022049017998B
:103F100016F06CFC0498282227493430FCF778FD11
:103F200004981999244F4166A0F87C600026C0F8D7
:103F30008060C666083FC0F888607968C16504A8DB
:103F400002F09EFA05A9204600F0FDFA1B4841F256
:103F5000827103960094CDE90110BDF91E00BDF9F0
:103F60001A10BDF91C20431ABDF918005B1C121A67
:103F7000521C16F0F9FC06467868416820468847CE
:103F8000204602F013FA0490866604A802F078FA3C
:103F900042F20400054202D1204616F04DFE2046B2
:103FA000189900F03BFA04F0E1FE0BB02046BDE8A2
:103FB000F08F0000D53C0008780700204D4800082D
:103FC0002DE9F041044694B0006800F0B7F908B15B
:103FD000D94D01E0D84D2C35606815281ED00CDC79
:103FE0000B281FD004DC00287ED005287DD12FE1CE
:103FF0000E287BD01228F9D141E1162806D01728C7
:1040000008D0182808D01C28F0D109E0E86914B0BD
:10401000BDE8F081286AFAE7686AF8E7A86AF6E777
:104020006869F4E720680B901C200C90206802F06F
:10403000BDF90390016D0BA88847064603A802F05E
:104040001FFA022E0FDB95E807008DE80700D4E980
:1040500004023346A16905F09BFA20698719A0691B
:10406000A0EB06082CE0286804F0F5F92169E8695E
:104070000A18521E606903F05DF8A269E869111A16
:10408000491C606903F056F8D4E904077F1C3946DF
:1040900003F0A0F83946A06903F09CF8686804F0C2
:1040A000DAF920693946401C03F094F8A0693946D2
:1040B000401E03F08FF8A0692769A0F10208BF1C19
:1040C000286804F0C8F942463946606903F032F8BE
:1040D000686804F0C0F9606942463946401C03F044
:1040E00029F8686A022802E015E1B0E000E10BDD82
:1040F000A86804F0B0F961696A6A881C8B180146E7
:10410000424638465B1E27E0296AB14226DD6069D7
:10411000022E074600F1020801DB374401E007F1F7
:104120000207206901DB304401E000F1020022694E
:104130003B460A444146A2F1010203F03FF9022E38
:1041400002DBA069821B01E0A269921EA069E969F5
:104150003B46401A4146401C03F030F9022E02DB78
:104160006069064401E06669B61CE76928687F1E3D
:1041700004F071F93A463146206903F0C3F83A4633
:104180003146A06903F0BEF8E7696868BF1E04F015
:1041900062F920693A463146401C03F0B3F8A06941
:1041A0003A463146401E03F0ADF8E869022802DCC9
:1041B000286A022823DDA86A022802DDE1690F1AB5
:1041C00001E0E769BF1EA86804F045F9E969022922
:1041D00009DD20693B46421800F1020C3146604679
:1041E000521E03F0EBF8286A022808DDA269E8698C
:1041F0003B46101A3146401C921E03F0DFF8286837
:1042000004F029F9D4E90620216902F093FF6868D7
:1042100004F021F9D4E906202169401E491C521EF0
:1042200002F088FFA86A022811DDA1692669E46905
:10423000A1F10208271AA41EB61C7F1CA86804F06E
:104240000AF9234642463946304603F0B7F871E092
:10425000208A00B2ADF81400A18A09B2ADF8161098
:10426000228B12B2ADF81820A38B1BB2ADF81A3016
:104270002C69ED68CDE9005402F020FF5AE0208A55
:10428000298B0844ADF81400A08AADF81600208BE5
:10429000298B401AADF81800A08BADF81A002068E1
:1042A00002F084F80390006FF0B1022004F07AF974
:1042B000039890F87C10C1F3C00100EB8100006C02
:1042C00004F0C9F80398406B04F0E2F80398006F1B
:1042D00002F06CF803990990B1F95A2005A902F08F
:1042E000F3FC09A802F0CCF803A802F0C9F821E019
:1042F000208AADF81400A08AADF81600208BADF826
:104300001800A08BADF81A00A86804F0A4F805A85E
:1043100003F080F80EE0206802F048F8039030F8CF
:104320005A1F41F00C01018003A802F0A9F820688F
:1043300017F054FC00206AE6B407002038B50500E9
:104340004FF000040FD003F0EBF9284602F02EF8EE
:10435000009090F87C00000700D50124684602F028
:104360008FF804F003FD204638BD70B50D460400FB
:1043700009D003F0D5F9294620461FF0B5FFBDE866
:10438000704004F0F3BC70BD074A0649054B11604C
:10439000064A083BD16958601B68C2E906300846E6
:1043A00070470000A807002074070020780700204D
:1043B0002DE9FC410D46804603F0B2F95FEA0800A2
:1043C00028D001F0F3FF0190C16D8C6800F022F954
:1043D00007460198456301A802F052F822680121BE
:1043E00040469047064622680321404690470546CE
:1043F00022680021404690470446404600F0EFF90D
:104400002B46324639464046009400F078F9404643
:1044100017F0E8F804F0AAFCBDE8FC817CB50D4675
:1044200004001DD003F07CF9204601F0BFFF00908E
:10443000006F0190684602F023F8294601A805F0B4
:10444000E7FB58B1204601F0B1FF009001990167E8
:10445000684602F015F8204617F0C4F804F086FC10
:104460007CBD38B50C46050013D003F059F9284639
:1044700001F09CFF0090B0F95A10A14204D0A0F8BE
:104480005A40284617F0AEF8684601F0F9FF04F0EC
:104490006DFC38BD38B50C46050015D003F040F969
:1044A000284601F083FF0022CDF8000000EB8201D6
:1044B000521C0C64022AF9D3684601F0E1FF284639
:1044C00017F090F804F052FC38BD2DE9FC470D467A
:1044D0005FEA00094FF0000432D003F021F94846AA
:1044E00001F064FF0190B0F95440A54223D000F0E0
:1044F00091F8804601980121A0F85450C06D85685C
:1045000048462A68904707462A680321484690474C
:1045100006462A680021484690470546484600F06E
:104520005EF933463A4641464846009500F0E7F8C2
:10453000484617F057F801A801F0A2FF04F016FC56
:104540002046BDE8FC872DE9F34F85B000270C46D7
:10455000B846059801F02AFF0090C06D01218568DA
:1045600005982A68904782462A6803210598904753
:1045700004902A6802210598904703902A68002138
:10458000059890470646009817F070FD83460098FE
:1045900017F073FD8146009890F83210890601D516
:1045A000B0F9588000F036F805460098C06E10B19A
:1045B00016F061FD074625806780A4F804A0049AE0
:1045C000ABEB020006EB0802401E2A4420813A446D
:1045D000E280039BA9EB0302521E6281A4F80CA0A7
:1045E00020827019E681401E6082684601F048FF13
:1045F000B4F90C000190B4F91000029002AA01A9CC
:10460000059800F039F80198A0810298208207B03F
:10461000BDE8F08F10B50146002091F832209206D7
:1046200007D5B1F95400002803D1486B03F035F8E1
:10463000801C10BD70B58AB00C46054601F0B6FE70
:104640000990C06D866809A801F01AFF009534B181
:10465000012C06D0022C0BD0032C04D10AE0182028
:1046600000E0162001907168684688470AB070BD66
:104670001520F7E71720F5E72DE9FC411746884696
:10468000044601F093FE0090C16D056868468E688F
:1046900001F0F6FE3268002120469047064620468B
:1046A00016F08FFB27E000BF01F080FE0190B0F90B
:1046B00000102AB2B0F90430891A9A1AB0F90230FF
:1046C000A3EB2543B34210D190F82800000605D58E
:1046D0003868884209DB491E396006E0D8F80000D6
:1046E000904202DC521CC8F8002001A801F0C8FE6C
:1046F000204616F013FC0400D6D1BDE8FC812DE95C
:10470000FF4F83B00E460746DDF8409001F04EFEA5
:104710000190C16D8D68FFF77DFF044601A801F08F
:10472000AFFE2A6801213846904783462A68032154
:104730003846904782462A68002138469047054609
:10474000B44207D105998B4504D106998A4501D118
:104750004D4541D0A41B0026B046384616F031FB2B
:1047600038E001F023FE0090806A010601D5800543
:1047700002E0810528D50006002825DB24B1224669
:104780001146384617F02BF8009890F828000006DC
:104790000AD50698A5EB0902A0EB0A0004FB160156
:1047A0003846761C16F0CFFF0098008D80050BD59B
:1047B0000599A5EB0902ABEB010004FB080108F128
:1047C0000108384616F0BFFF684601F059FE38462A
:1047D00016F0A4FB0700C4D107B0BDE8F08F70B598
:1047E00086B0064601F0E2FD0590D0E91A4505A81D
:1047F00001F046FE54EA050026D069463046FFF730
:10480000A2FEACB1BDF90620BDF90410204616F099
:104810006DFFBDF90A00BDF90610421ABDF9080086
:10482000BDF90410521C411A2046491C17F02BFAFE
:10483000002D09D0BDF90600BDF90210421ABDF9DC
:104840000410284616F052FF06B070BD2DE9F04363
:104850000446406889B0054616F06DFB814601F0BC
:10486000A5FD0290D0F84880D0F88070466E02A86E
:1048700001F006FE2068172853D008DC0E283AD035
:104880000F2811D014284CD015283DD149E01E28FE
:104890001ED01F282AD0222840D0312834D1002011
:1048A000E06009B0BDE8F0836FF070414046884594
:1048B00003D009F029F801F09FFF002EF1D0D4E9D0
:1048C00002122068CDE90405CDE9061204A81FE014
:1048D000E0680028E5D02FB1AF4203D0384617F08A
:1048E000F7F8DEE7284617F047F9DAE721464846A9
:1048F00015F027FED5E7E0684168002904DD00686F
:104900000928EFD00A2805D05EB12046C4F80490EB
:10491000B047C6E7284617F03EF9C2E7C4F80C8056
:10492000BFE7204616F0D8F8BBE7000070B5364860
:1049300088B00024016841F080010160016801F045
:1049400080010691016841F480710160006801A94D
:1049500000F4807006908020012581E8310003205A
:1049600004902A4805F0D4FB2802CDE9010501A9ED
:10497000274805F0CDFBFEF73BF8264EC6F8A042CF
:10498000142006F5287622F0A9F83560322022F0AE
:10499000A5F88DF8004001226946002000F00AF9D0
:1049A00001226946A42000F005F916208DF80000C8
:1049B00001226946802000F0FDF80C208DF80000EF
:1049C00001226946882000F0F5F802226946A120FC
:1049D00000F028F89DF80000302803D19DF8011060
:1049E000032908D09DF80110012904D0022902D022
:1049F000012008B070BDC9B201EB002106A0FBF791
:104A000005FD0020F5E7000030380240001C0240A0
:104A100000200240000044424354502049443A25BB
:104A2000780D0A002DE9F04115460F460446FEF7C1
:104A3000ABF87020FEF772F8FEF7F2F8E0B2FEF77E
:104A40006DF8FEF7EDF8FEF79FF87120FEF766F8B7
:104A5000FEF7E6F800246E1E09E0B44201D0012002
:104A600000E00020FEF71EF83855641CE4B2AC42AA
:104A7000F3D3BDE8F041FEF7ADB800002DE9F143F6
:104A8000484F00244FF00A09387882B0401CC0B269
:104A9000B0FBF9F209FB1201434DA046387009B191
:104AA0000A2864D2012202A90220FFF7BBFF9DF869
:104AB000080001075BD000F00F00062857D2FF2145
:104AC0008140C84340F0C00085F820004FF0010845
:104AD000002695F8201008FA04F001423AD0334835
:104AE0000422694630F81400FFF79CFF95F8300067
:104AF0009DF80010C0079DF8010001F00F010ED0D5
:104B000000EB012105EB4400C1829DF802209DF8D5
:104B1000031002F00F0201EB0221818110E000EB93
:104B2000012023490988091A05EB440081819DF879
:104B300002209DF8031002F00F0201EB0221C18256
:104B40009DF800000821B1EB101F03D005EB4400D5
:104B5000C6828681641CE4B2052CBAD3A9894FF0C1
:104B6000010819B9E88A08B98DF808603E709DF807
:104B70000800C0060ED195F82000010602D520F0ED
:104B8000800005E04FF6FF71A981E98200F0E000A6
:104B900085F820003878F02801D987F80090404641
:104BA000BDE8FE83540000205C00002044DC0208C5
:104BB0000C3500202DE9F04115460E46044600272D
:104BC000FDF7E2FF7020FDF7A9FFFEF729F8E0B23C
:104BD000FDF7A4FFFEF724F8002408E0305DFDF7A0
:104BE0009DFFFEF71DF8070003D1641CE4B2AC4240
:104BF000F4D3FDF7EFFF3846BDE8F08138B5044641
:104C0000094D4FF0AA300090A879042360436A460A
:104C100000210CF02FF8A879042360436A46002194
:104C2000401C0CF027F838BD504900202DE9FC4706
:104C3000254F89460646002500240DF1040810E0A2
:104C4000CDF80080798870438B084A4600210BF02C
:104C500093FE7888BDF80410B1EB900F04D1641C6A
:104C6000A4B2B879A042EBD8B879A04202D1002012
:104C7000BDE8FC8730460BF0A3FC20B1294613A009
:104C8000FBF7C4FB16E0B9F1FF3F13D000200AE0A8
:104C90007A8806FB00109308002211460BF0C2FF31
:104CA000BDF80400401CADF80400B879BDF804104C
:104CB0008842EDD86D1CADB2032DBDD3314609A09D
:104CC000FBF7A4FB0120D3E7504900206572726F07
:104CD0007220657261736520626C6F636B3A256444
:104CE0000D0A000062616420626C6F636B20636870
:104CF00065636B65643A25640D0A000038B50446A7
:104D0000104D00208DF80000A879012360436A4609
:104D100000210BF065FE9DF80000FF2801D0022065
:104D200038BDA879012360436A460021401C0BF07E
:104D300057FE9DF80000FF2801D0012038BD00205B
:104D400038BD0000504900202DE9F84F91462F4A08
:104D50008A461D469179B0FBF1F3B0FBF1F801FBF7
:104D6000130B404600F0B8F8284907464889B84276
:104D700002D20120BDE8F88F002428E05C4516D35C
:104D8000ADB14A88A2EB0A01A94201D28EB200E07D
:104D9000AEB207FB004108FB00404B46524600966E
:104DA0000BF096FA4FF0000AB144AD1B05E007FB8B
:104DB000004108FB00400BF05DFB30B13846FFF7C7
:104DC0001DFF012000F024F8CBE7641CA4B20F49BA
:104DD0008879A042D2D80D46A879A04214D138468D
:104DE00000F028FA40460BF0EBFB00206A89696965
:104DF00008E031F81040444502D121F8107003E07A
:104E0000401C80B28242F4D80020B3E75049002011
:104E1000F8B506460021294D4FF6FF7003E06A6998
:104E200022F81100491C6A898A42F8D80020A8811A
:104E300004461CE0A879042360436A4600210BF075
:104E4000CFFD9DF80000FF280CD1B6B1A879012351
:104E500060436A460021401C0BF0C2FD9DF8000033
:104E6000FF280AD0214616A0FBF7D0FA641C6989F6
:104E7000A142DFD800206A6916E09DF802009DF883
:104E8000031000EB01206989814202D9696921F888
:104E90001040A889401CA881E8E732F810308B4206
:104EA00001D3E88102E0401C8142F6D8E8896428F9
:104EB00001D20220F8BD0020F8BD000050490020BA
:104EC00062616420626C6F636B20696E6465783A1E
:104ED00025640D0A0000000070B5104E104C718959
:104EE0002268491E914200D2216000F00105294646
:104EF000206800F017F8411C0AD170892168401E13
:104F0000884207D92946206000F00CF8411C01D0E6
:104F1000206070BD4FF0FF3070BD00005049002090
:104F200098000020F8B50D460021401C00910400B7
:104F300012D00C4F012626EA0400A8420AD1B87903
:104F4000611E484304236A4600210BF049FD009886
:104F5000401C04D0641EEED14FF0FF30F8BD601E3F
:104F6000F8BD000050490020F8B5254E00273C460A
:104F7000B78113E02046FFF7C1FE70B920460BF061
:104F80001FFB38B121461FA0FBF740FA2046FFF770
:104F900035FE02E0B089401CB081641C7089A042DB
:104FA000E8D8B1891BA0FBF731FAB089642801D297
:104FB0000120F8BDC0EB4010642100EB4000B0FBC5
:104FC000F1F50024009710E02046FFF797FE58B94E
:104FD000B079022360436A4619460BF04BFE0098F5
:104FE000401C0090A84203D0641C7089A042EBD8FA
:104FF0000120FFF70DFF0028DBD00220F8BD0000E4
:105000005049002042616420626C6F636B3A2564F2
:105010000D0A0000676F6F645F626C6F636B6E7583
:105020006D3A25640D0A000010B50BF0F3FA00BBD1
:10503000184C616911B1002022F066FA60894100C4
:10504000002022F06DFA606161894900FBF71AFDCA
:10505000606970B10120FFF7DBFE60B10EA0FBF7C5
:10506000D5F9FFF781FF90B111A0FBF7CFF902202E
:1050700010BD012010BD618912A0FBF7C7F9A189FD
:1050800016A0FBF7C3F9E18919A0FBF7BFF90020CF
:1050900010BD000050490020666F726D6174206E73
:1050A000616E6420666C6173682E2E2E0D0A0000FE
:1050B000666F726D6174206661696C6564210D0AAA
:1050C00000000000746F74616C20626C6F636B2071
:1050D0006E756D3A25640D0A00000000676F6F64FD
:1050E00020626C6F636B206E756D3A25640D0A004B
:1050F00076616C696420626C6F636B206E756D3ACB
:1051000025640D0A000000000549CA89824202D2C6
:105110004FF6FF707047496931F810007047000082
:10512000504900202DE9FF5F9B4615468246002628
:1051300079E03F4C6088B0FBF5F1A07941430198DC
:105140008319B3FBF1F0FFF7DFFF6189814203D8D8
:10515000012004B0BDE8F09F354C6188A479B1FB13
:10516000F5F26243B3FBF2F702FB17326A43B2FB7C
:10517000F1F300FB0437B2FBF1F001FB1028A1EBC7
:105180000800B0FBF5F084B2ABEB0600A04200D201
:1051900084B204FB05F91FFA89F31FFA88F152461D
:1051A00038460BF0CBFA032809D11FFA89F31FFA0E
:1051B00088F1524638460BF0C1FA032804D004287F
:1051C0002ED068B30220C4E74B461FFA88F152463E
:1051D0003846FFF7B9FDDFF858804FF0FF3198F8F7
:1051E0000600B7FBF0F0FFF721FD80B998F8060044
:1051F0000021B7FBF0F0FFF719FD814698F8060093
:10520000B7FBF0F00BF0DCF9B9F1000F08D098F81B
:105210000600B7FBF0F0FFF7F1FC0120FFF7F8FD07
:1052200005FB04AA26445E4583D3002091E70000D5
:105230005049002008B5CC218DF800100449012305
:105240006A468979484319460BF014FD08BD0000F1
:10525000504900202DE9FF4F85B0154600274FF03B
:10526000FF3B7BE0404C6088A179B0FBF5F0484300
:105270000699CB19B3FBF0F0FFF746FF6189804632
:10528000414503D8012009B0BDE8F08F364A508867
:105290009279B0FBF5F15143B3FBF1F401FB14310A
:1052A00001FB05FABAFBF0F308FB0231BAFBF0F29E
:1052B00000FB12A9A0EB090080B2B0FBF5F002914F
:1052C0000899ADF80400C91B8CB20391844200D345
:1052D000044601A804FB05F600901FFA89F1C6F305
:1052E0008F034FF0FF3202980BF046FB08B102200B
:1052F000C9E7BDF80400B0EB960F0FD1B3B21FFAA7
:1053000089F1059A02980BF0E5FB38B94146C3458F
:1053100020D00846FFF78EFFC346D8B112488179E6
:1053200040884143A1EB0A00B0FBF5F0039980B23D
:105330008CB2ADF80400844200D3044604FB05F6A9
:105340001FFA89F13346059A0298FFF7FDFC08B170
:10535000032098E705982744304405900898874231
:1053600080D300208FE70000504900202DE9F04352
:105370000446C56887B090468946002003F07CF853
:10538000064625B1287910B146F0020001E026F06A
:10539000020003F071F82069012558B1D4E9021226
:1053A0008DE82600039563882288046841464846B4
:1053B000A0471EE0124F134B214638681B68427C01
:1053C000E068984730B9E088012801D0002001E06A
:1053D0003868806BA288E388A1680095CDE9041045
:1053E000CDE902320195638822884146484607F09C
:1053F0007FFB07B03046BDE8F04303F03DB8000046
:10540000DC040020D40400201CB50024019401AC6D
:10541000009400F0E7F81CBD2DE9FF4F83B08146F2
:1054200006988A46A0EB0A08109E00200090A2EB86
:1054300009043568934654EA080018D02046FCF762
:1054400003FF07464046FCF7FFFE87420BDA204683
:10545000444680464846D14682465846DDF818B054
:10546000069001200090002C07DD204606E007B0E2
:105470004846BDE8F04F00F03BB96042A0420AD078
:105480004846D9466442C8F1000883464FF0FF37CA
:10549000DDF818A000E001275148B8F1000F11D045
:1054A00004EBD4714FEA610B01DACBF1000B4C48ED
:1054B0000068807E88B3002F02DA306820443060B4
:1054C00000257BE000990029016821D0897E11B177
:1054D0000027804615E007B05A4649465046BDE8C9
:1054E000F04F07F0CBBC28466D1C1EF0E7FF38B923
:1054F000D8F8000009EB0701406E4268504690471B
:105500007F1CA742EFDD6D1E356007B0BDE8F08F50
:105510008A7E1AB10027804617E019E0486E5A4685
:105520005146036807B04846BDE8F04F1847284683
:105530006D1C1EF0C3FF38B9D8F8001009EB070046
:10554000496E4A68514690477F1CA742EFDDDAE773
:1055500000250FE008FB05B090FBF4F101EB0A0019
:10556000009951B11E4A09EB05011268526E52684A
:1055700090476D1CA542EDDDC7E7194909EB05030E
:105580000968496E4A6801461846F1E708FB05B00C
:1055900090FBF4F101EB0A00019030683844306070
:1055A0001EF08CFF48B9009890B10D4809EB050139
:1055B0000068406E4268019890476D1CA542E5DD89
:1055C0003068002F01DA20443060C01B30609CE757
:1055D000034909EB05000968496E4A680199EBE740
:1055E000DC0400202DE9FF470F464049164680465F
:1055F00009680C981D460A7E012A1CD0A8EB0600FB
:10560000791B50EA01031CD0A2F1010920F06AFBCA
:1056100000F58060824604F0EAFB00FB09F4504686
:1056200004F0EAFB00FB09F1002C0CDAC4F5007071
:10563000801240420AE00090324639464046FFF769
:10564000EBFEBDE8FF8704F50074A012002904DA20
:10565000C1F5007189124C4202E001F500718C1213
:10566000002804DD411C01EBD171491003E000EB7F
:10567000D0714910401E00EBD0704210002C04DDA8
:10568000601C00EBD070401003E004EBD4704010BD
:10569000641E04EBD47308EB0104ADF800403C1821
:1056A000ADF80240A8EB02045B10B21AADF804405A
:1056B000ADF808203144FC1AEA1AADF80C10284461
:1056C000ADF80A20ADF80E000023ADF806401A46EA
:1056D0000421684600F07AF8394640461AF0A2FBE9
:1056E000294630461AF09EFBABE70000DC040020A0
:1056F000064A13681A7E012A05D0521E02EBD272A6
:10570000521000F005B85A6E52681047DC040020B1
:105710002DE9F05F0646884640F2C32002FB00F107
:105720004FF47A7091FBF0F702FB02F102EBD270BA
:1057300001EB600B1446B118234A301B7F1C126822
:10574000526E13680A4641469847012538E000BF6B
:1057500005FB05F004FB040159451CDDBC4219DDC5
:10576000194B06EB050AA6EB05091B68AAF1010215
:1057700008EB04015B6E09F101001B689847124BAE
:10578000AAF10102A8EB04011B6809F101005B6E9C
:105790001B689847641E0C4B3219301B1B689246DD
:1057A00008EB05015B6E81461B689847064B524625
:1057B000A8EB05011B6848465B6E1B6898476D1C8B
:1057C000BD42C5DDBDE8F09FDC0400202DE9FF4FA0
:1057D00043F6FF740F46664283B09B468146002124
:1057E0000BE000BF09EB8100B0F90200A04200DA33
:1057F0000446B04200DD0646491CB942F2DB674868
:105800000068406900280DD0B0F906101A46A1EBD7
:105810000B01B14200DA0E46B0F90200801AA04234
:1058200000DD0446B4E0DFF878A100200546CAF8A0
:10583000000088E0781E854201DA6B1C00E000233E
:1058400009EB850C09EB8302BCF90200B2F90210E6
:10585000A04244D1A14215D139F92330059A39F932
:10586000251003EB020C4D4A05981268084404EB1E
:105870000B01526E6045136801DA62462AE0024667
:10588000604627E02846A4464FF000087A1E0BE049
:1058900008B1401E00E0781E09EB8003B3F9023026
:1058A000634504D108F101089045F1DB2346A3428A
:1058B00048D01A1B39F92500A1EB040C059B92EA8C
:1058C0000C0F09D4354A184404EB0B011268526ED0
:1058D00013680246984735E017F03AF832E0A142E3
:1058E00030D001DBA04203DDA0422BDBA14229DC4A
:1058F000E04688420ADC0346A04223DC0846A14277
:1059000020DBB8F900C0B2F9001008E00B46A14254
:1059100018DCA04216DBB2F900C0B8F90010E21A98
:10592000A1EB0C0151430029A0EB030202DD01EBC6
:10593000620102E0A1EB6201491CC01A91FBF0F088
:105940006044C9E76D1CBD42FFF674AF0598009036
:1059500004EB0B00019000208046054613E011493E
:10596000B8F1000F31F915A009D0009901EB0A0236
:1059700008440A490968496E0B680199984788F0FC
:10598000010850466D1C064909688D42E7DB641C1E
:10599000B4427FF748AF07B0BDE8F08FDC040020C9
:1059A000580F0020B843012010B5002002F048FD38
:1059B0006FF07F4002F04FFD012002F0D5FD002086
:1059C00002F0E0FD002002F0EDFD002002F054FDA9
:1059D0000448006802F05CFDBDE81040002002F0C1
:1059E00095BD0000D80400202DE9F0433F4889B060
:1059F0000024016841F080010160016801F080012C
:105A00000791016841F4807101600068802600F40C
:105A10008070079001AA012503270096DFF8D09037
:105A200082E8B0006946484604F072FB2802CDE9DE
:105A3000000569462F4804F06BFBFCF7D9FFDFF83F
:105A4000B880C8F8A0420A2021F048F8C8F8A0524F
:105A50000A2021F043F8CDE90064CDE90247694608
:105A6000484604F055FB642021F038F8042205A9CB
:105A700048F2401000F058F88DF8184005A91FA012
:105A8000FAF7C4FC20A105A8FBF746F818B10120DD
:105A900009B0BDE8F08302208DF8140048F24005FB
:105AA000012205A9284600F083F9012205A9E81D75
:105AB00000F03AF89DF8141060290BD214A0FAF700
:105AC000A5FC18488088A0F5AA41103902D1012010
:105AD00000F048F90A2021F001F88DF81440012265
